{
  "contractName": "HierarchicalWallet",
  "abi": [
    {
      "inputs": [
        {
          "internalType": "address",
          "name": "_parent",
          "type": "address"
        },
        {
          "internalType": "address",
          "name": "_child",
          "type": "address"
        }
      ],
      "stateMutability": "nonpayable",
      "type": "constructor"
    },
    {
      "anonymous": false,
      "inputs": [
        {
          "indexed": true,
          "internalType": "uint256",
          "name": "transactionId",
          "type": "uint256"
        },
        {
          "indexed": true,
          "internalType": "address",
          "name": "signer",
          "type": "address"
        }
      ],
      "name": "TransactionConfirmed",
      "type": "event"
    },
    {
      "anonymous": false,
      "inputs": [
        {
          "indexed": true,
          "internalType": "uint256",
          "name": "transactionId",
          "type": "uint256"
        }
      ],
      "name": "TransactionExecuted",
      "type": "event"
    },
    {
      "anonymous": false,
      "inputs": [
        {
          "indexed": true,
          "internalType": "uint256",
          "name": "transactionId",
          "type": "uint256"
        }
      ],
      "name": "TransactionSubmitted",
      "type": "event"
    },
    {
      "inputs": [],
      "name": "REQUIRED_CONFIRMATIONS",
      "outputs": [
        {
          "internalType": "uint256",
          "name": "",
          "type": "uint256"
        }
      ],
      "stateMutability": "view",
      "type": "function",
      "constant": true
    },
    {
      "inputs": [],
      "name": "child",
      "outputs": [
        {
          "internalType": "address",
          "name": "",
          "type": "address"
        }
      ],
      "stateMutability": "view",
      "type": "function",
      "constant": true
    },
    {
      "inputs": [
        {
          "internalType": "uint256",
          "name": "",
          "type": "uint256"
        },
        {
          "internalType": "address",
          "name": "",
          "type": "address"
        }
      ],
      "name": "confirmations",
      "outputs": [
        {
          "internalType": "bool",
          "name": "",
          "type": "bool"
        }
      ],
      "stateMutability": "view",
      "type": "function",
      "constant": true
    },
    {
      "inputs": [],
      "name": "parent",
      "outputs": [
        {
          "internalType": "address",
          "name": "",
          "type": "address"
        }
      ],
      "stateMutability": "view",
      "type": "function",
      "constant": true
    },
    {
      "inputs": [],
      "name": "transactionCount",
      "outputs": [
        {
          "internalType": "uint256",
          "name": "",
          "type": "uint256"
        }
      ],
      "stateMutability": "view",
      "type": "function",
      "constant": true
    },
    {
      "inputs": [
        {
          "internalType": "uint256",
          "name": "",
          "type": "uint256"
        }
      ],
      "name": "transactions",
      "outputs": [
        {
          "internalType": "address",
          "name": "to",
          "type": "address"
        },
        {
          "internalType": "uint256",
          "name": "value",
          "type": "uint256"
        },
        {
          "internalType": "bytes",
          "name": "data",
          "type": "bytes"
        },
        {
          "internalType": "bool",
          "name": "executed",
          "type": "bool"
        },
        {
          "internalType": "uint256",
          "name": "numConfirmations",
          "type": "uint256"
        }
      ],
      "stateMutability": "view",
      "type": "function",
      "constant": true
    },
    {
      "inputs": [
        {
          "internalType": "address",
          "name": "_to",
          "type": "address"
        },
        {
          "internalType": "uint256",
          "name": "_value",
          "type": "uint256"
        },
        {
          "internalType": "bytes",
          "name": "_data",
          "type": "bytes"
        }
      ],
      "name": "submitTransaction",
      "outputs": [],
      "stateMutability": "nonpayable",
      "type": "function"
    },
    {
      "inputs": [
        {
          "internalType": "uint256",
          "name": "_transactionId",
          "type": "uint256"
        }
      ],
      "name": "confirmTransaction",
      "outputs": [],
      "stateMutability": "nonpayable",
      "type": "function"
    }
  ],
  "bytecode": "0x608060405234801562000010575f80fd5b50604051620015a0380380620015a0833981810160405281019062000036919062000122565b815f806101000a81548173ffffffffffffffffffffffffffffffffffffffff021916908373ffffffffffffffffffffffffffffffffffffffff1602179055508060015f6101000a81548173ffffffffffffffffffffffffffffffffffffffff021916908373ffffffffffffffffffffffffffffffffffffffff160217905550505062000167565b5f80fd5b5f73ffffffffffffffffffffffffffffffffffffffff82169050919050565b5f620000ec82620000c1565b9050919050565b620000fe81620000e0565b811462000109575f80fd5b50565b5f815190506200011c81620000f3565b92915050565b5f80604083850312156200013b576200013a620000bd565b5b5f6200014a858286016200010c565b92505060206200015d858286016200010c565b9150509250929050565b61142b80620001755f395ff3fe608060405234801561000f575f80fd5b5060043610610086575f3560e01c80639ace38c2116100595780639ace38c214610114578063b77bf60014610148578063c01a8c8414610166578063c64274741461018257610086565b8063237b5e961461008a5780633411c81c146100a8578063587d8127146100d857806360f96a8f146100f6575b5f80fd5b61009261019e565b60405161009f9190610a15565b60405180910390f35b6100c260048036038101906100bd9190610a9c565b6101c3565b6040516100cf9190610af4565b60405180910390f35b6100e06101ed565b6040516100ed9190610b1c565b60405180910390f35b6100fe6101f2565b60405161010b9190610a15565b60405180910390f35b61012e60048036038101906101299190610b35565b610215565b60405161013f959493929190610bea565b60405180910390f35b6101506102f8565b60405161015d9190610b1c565b60405180910390f35b610180600480360381019061017b9190610b35565b6102fe565b005b61019c60048036038101906101979190610d6e565b6105d5565b005b60015f9054906101000a900473ffffffffffffffffffffffffffffffffffffffff1681565b6003602052815f5260405f20602052805f5260405f205f915091509054906101000a900460ff1681565b600281565b5f8054906101000a900473ffffffffffffffffffffffffffffffffffffffff1681565b6002602052805f5260405f205f91509050805f015f9054906101000a900473ffffffffffffffffffffffffffffffffffffffff169080600101549080600201805461025f90610e07565b80601f016020809104026020016040519081016040528092919081815260200182805461028b90610e07565b80156102d65780601f106102ad576101008083540402835291602001916102d6565b820191905f5260205f20905b8154815290600101906020018083116102b957829003601f168201915b505050505090806003015f9054906101000a900460ff16908060040154905085565b60045481565b5f8054906101000a900473ffffffffffffffffffffffffffffffffffffffff1673ffffffffffffffffffffffffffffffffffffffff163373ffffffffffffffffffffffffffffffffffffffff1614806103a3575060015f9054906101000a900473ffffffffffffffffffffffffffffffffffffffff1673ffffffffffffffffffffffffffffffffffffffff163373ffffffffffffffffffffffffffffffffffffffff16145b6103e2576040517f08c379a00000000000000000000000000000000000000000000000000000000081526004016103d990610e91565b60405180910390fd5b60025f8281526020019081526020015f206003015f9054906101000a900460ff1615610443576040517f08c379a000000000000000000000000000000000000000000000000000000000815260040161043a90610ef9565b60405180910390fd5b60035f8281526020019081526020015f205f3373ffffffffffffffffffffffffffffffffffffffff1673ffffffffffffffffffffffffffffffffffffffff1681526020019081526020015f205f9054906101000a900460ff16156104dc576040517f08c379a00000000000000000000000000000000000000000000000000000000081526004016104d390610f87565b60405180910390fd5b600160035f8381526020019081526020015f205f3373ffffffffffffffffffffffffffffffffffffffff1673ffffffffffffffffffffffffffffffffffffffff1681526020019081526020015f205f6101000a81548160ff02191690831515021790555060025f8281526020019081526020015f206004015f81548092919061056490610fd2565b91905055503373ffffffffffffffffffffffffffffffffffffffff16817f15c2f311c9e0f53b50388279894aeff029a3457884a6601e924fca879e12adcc60405160405180910390a36002805f8381526020019081526020015f2060040154106105d2576105d1816107e9565b5b50565b5f8054906101000a900473ffffffffffffffffffffffffffffffffffffffff1673ffffffffffffffffffffffffffffffffffffffff163373ffffffffffffffffffffffffffffffffffffffff16148061067a575060015f9054906101000a900473ffffffffffffffffffffffffffffffffffffffff1673ffffffffffffffffffffffffffffffffffffffff163373ffffffffffffffffffffffffffffffffffffffff16145b6106b9576040517f08c379a00000000000000000000000000000000000000000000000000000000081526004016106b090610e91565b60405180910390fd5b5f60045490506040518060a001604052808573ffffffffffffffffffffffffffffffffffffffff1681526020018481526020018381526020015f151581526020015f81525060025f8381526020019081526020015f205f820151815f015f6101000a81548173ffffffffffffffffffffffffffffffffffffffff021916908373ffffffffffffffffffffffffffffffffffffffff16021790555060208201518160010155604082015181600201908161077291906111b6565b506060820151816003015f6101000a81548160ff0219169083151502179055506080820151816004015590505060045f8154809291906107b190610fd2565b9190505550807fd0b5d9eac097410294ec9f2cee7cd185cf31ab46babf3dfdbeac8b222b03f2d160405160405180910390a250505050565b60025f8281526020019081526020015f206003015f9054906101000a900460ff161561084a576040517f08c379a000000000000000000000000000000000000000000000000000000000815260040161084190610ef9565b60405180910390fd5b6002805f8381526020019081526020015f206004015410156108a1576040517f08c379a0000000000000000000000000000000000000000000000000000000008152600401610898906112cf565b60405180910390fd5b5f60025f8381526020019081526020015f2090506001816003015f6101000a81548160ff0219169083151502179055505f815f015f9054906101000a900473ffffffffffffffffffffffffffffffffffffffff1673ffffffffffffffffffffffffffffffffffffffff168260010154836002016040516109219190611377565b5f6040518083038185875af1925050503d805f811461095b576040519150601f19603f3d011682016040523d82523d5f602084013e610960565b606091505b50509050806109a4576040517f08c379a000000000000000000000000000000000000000000000000000000000815260040161099b906113d7565b60405180910390fd5b827f15ed165a284872ea7017f03df402a0cadfbfab588320ffaf83f160c2f82781c760405160405180910390a2505050565b5f73ffffffffffffffffffffffffffffffffffffffff82169050919050565b5f6109ff826109d6565b9050919050565b610a0f816109f5565b82525050565b5f602082019050610a285f830184610a06565b92915050565b5f604051905090565b5f80fd5b5f80fd5b5f819050919050565b610a5181610a3f565b8114610a5b575f80fd5b50565b5f81359050610a6c81610a48565b92915050565b610a7b816109f5565b8114610a85575f80fd5b50565b5f81359050610a9681610a72565b92915050565b5f8060408385031215610ab257610ab1610a37565b5b5f610abf85828601610a5e565b9250506020610ad085828601610a88565b9150509250929050565b5f8115159050919050565b610aee81610ada565b82525050565b5f602082019050610b075f830184610ae5565b92915050565b610b1681610a3f565b82525050565b5f602082019050610b2f5f830184610b0d565b92915050565b5f60208284031215610b4a57610b49610a37565b5b5f610b5784828501610a5e565b91505092915050565b5f81519050919050565b5f82825260208201905092915050565b5f5b83811015610b97578082015181840152602081019050610b7c565b5f8484015250505050565b5f601f19601f8301169050919050565b5f610bbc82610b60565b610bc68185610b6a565b9350610bd6818560208601610b7a565b610bdf81610ba2565b840191505092915050565b5f60a082019050610bfd5f830188610a06565b610c0a6020830187610b0d565b8181036040830152610c1c8186610bb2565b9050610c2b6060830185610ae5565b610c386080830184610b0d565b9695505050505050565b5f80fd5b5f80fd5b7f4e487b71000000000000000000000000000000000000000000000000000000005f52604160045260245ffd5b610c8082610ba2565b810181811067ffffffffffffffff82111715610c9f57610c9e610c4a565b5b80604052505050565b5f610cb1610a2e565b9050610cbd8282610c77565b919050565b5f67ffffffffffffffff821115610cdc57610cdb610c4a565b5b610ce582610ba2565b9050602081019050919050565b828183375f83830152505050565b5f610d12610d0d84610cc2565b610ca8565b905082815260208101848484011115610d2e57610d2d610c46565b5b610d39848285610cf2565b509392505050565b5f82601f830112610d5557610d54610c42565b5b8135610d65848260208601610d00565b91505092915050565b5f805f60608486031215610d8557610d84610a37565b5b5f610d9286828701610a88565b9350506020610da386828701610a5e565b925050604084013567ffffffffffffffff811115610dc457610dc3610a3b565b5b610dd086828701610d41565b9150509250925092565b7f4e487b71000000000000000000000000000000000000000000000000000000005f52602260045260245ffd5b5f6002820490506001821680610e1e57607f821691505b602082108103610e3157610e30610dda565b5b50919050565b5f82825260208201905092915050565b7f4e6f7420616e206f776e657200000000000000000000000000000000000000005f82015250565b5f610e7b600c83610e37565b9150610e8682610e47565b602082019050919050565b5f6020820190508181035f830152610ea881610e6f565b9050919050565b7f5472616e73616374696f6e20616c7265616479206578656375746564000000005f82015250565b5f610ee3601c83610e37565b9150610eee82610eaf565b602082019050919050565b5f6020820190508181035f830152610f1081610ed7565b9050919050565b7f5472616e73616374696f6e20616c726561647920636f6e6669726d65642062795f8201527f2074686973206f776e6572000000000000000000000000000000000000000000602082015250565b5f610f71602b83610e37565b9150610f7c82610f17565b604082019050919050565b5f6020820190508181035f830152610f9e81610f65565b9050919050565b7f4e487b71000000000000000000000000000000000000000000000000000000005f52601160045260245ffd5b5f610fdc82610a3f565b91507fffffffffffffffffffffffffffffffffffffffffffffffffffffffffffffffff820361100e5761100d610fa5565b5b600182019050919050565b5f819050815f5260205f209050919050565b5f6020601f8301049050919050565b5f82821b905092915050565b5f600883026110757fffffffffffffffffffffffffffffffffffffffffffffffffffffffffffffffff8261103a565b61107f868361103a565b95508019841693508086168417925050509392505050565b5f819050919050565b5f6110ba6110b56110b084610a3f565b611097565b610a3f565b9050919050565b5f819050919050565b6110d3836110a0565b6110e76110df826110c1565b848454611046565b825550505050565b5f90565b6110fb6110ef565b6111068184846110ca565b505050565b5b818110156111295761111e5f826110f3565b60018101905061110c565b5050565b601f82111561116e5761113f81611019565b6111488461102b565b81016020851015611157578190505b61116b6111638561102b565b83018261110b565b50505b505050565b5f82821c905092915050565b5f61118e5f1984600802611173565b1980831691505092915050565b5f6111a6838361117f565b9150826002028217905092915050565b6111bf82610b60565b67ffffffffffffffff8111156111d8576111d7610c4a565b5b6111e28254610e07565b6111ed82828561112d565b5f60209050601f83116001811461121e575f841561120c578287015190505b611216858261119b565b86555061127d565b601f19841661122c86611019565b5f5b828110156112535784890151825560018201915060208501945060208101905061122e565b86831015611270578489015161126c601f89168261117f565b8355505b6001600288020188555050505b505050505050565b7f4e6f7420656e6f75676820636f6e6669726d6174696f6e7300000000000000005f82015250565b5f6112b9601883610e37565b91506112c482611285565b602082019050919050565b5f6020820190508181035f8301526112e6816112ad565b9050919050565b5f81905092915050565b5f815461130381610e07565b61130d81866112ed565b9450600182165f8114611327576001811461133c5761136e565b60ff198316865281151582028601935061136e565b61134585611019565b5f5b8381101561136657815481890152600182019150602081019050611347565b838801955050505b50505092915050565b5f61138282846112f7565b915081905092915050565b7f5472616e73616374696f6e20657865637574696f6e206661696c6564000000005f82015250565b5f6113c1601c83610e37565b91506113cc8261138d565b602082019050919050565b5f6020820190508181035f8301526113ee816113b5565b905091905056fea26469706673582212202eaab0c77c578582fe6ee4663bbd521565391c2e70b77358dd2da779078e21a364736f6c63430008150033",
  "immutableReferences": {},
  "source": "// SPDX-License-Identifier: MIT\npragma solidity >=0.4.22 <0.9.0;\n\ncontract HierarchicalWallet {\n    address public parent;\n    address public child;\n    uint public constant REQUIRED_CONFIRMATIONS = 2;\n\n    struct Transaction {\n        address to;\n        uint value;\n        bytes data;\n        bool executed;\n        uint numConfirmations;\n    }\n\n    mapping(uint => Transaction) public transactions;\n    mapping(uint => mapping(address => bool)) public confirmations;\n    uint public transactionCount;\n\n    event TransactionSubmitted(uint indexed transactionId);\n    event TransactionConfirmed(uint indexed transactionId, address indexed signer);\n    event TransactionExecuted(uint indexed transactionId);\n\n    constructor(address _parent, address _child) {\n        parent = _parent;\n        child = _child;\n    }\n\n    modifier onlyOwner() {\n        require(msg.sender == parent || msg.sender == child, \"Not an owner\");\n        _;\n    }\n\n    function submitTransaction(address _to, uint _value, bytes memory _data) public onlyOwner {\n        uint transactionId = transactionCount;\n        transactions[transactionId] = Transaction({\n            to: _to,\n            value: _value,\n            data: _data,\n            executed: false,\n            numConfirmations: 0\n        });\n        transactionCount++;\n        emit TransactionSubmitted(transactionId);\n    }\n\n    function confirmTransaction(uint _transactionId) public onlyOwner {\n        require(!transactions[_transactionId].executed, \"Transaction already executed\");\n        require(!confirmations[_transactionId][msg.sender], \"Transaction already confirmed by this owner\");\n\n        confirmations[_transactionId][msg.sender] = true;\n        transactions[_transactionId].numConfirmations++;\n        emit TransactionConfirmed(_transactionId, msg.sender);\n\n        if (transactions[_transactionId].numConfirmations >= REQUIRED_CONFIRMATIONS) {\n            executeTransaction(_transactionId);\n        }\n    }\n\n    function executeTransaction(uint _transactionId) private {\n        require(!transactions[_transactionId].executed, \"Transaction already executed\");\n        require(transactions[_transactionId].numConfirmations >= REQUIRED_CONFIRMATIONS, \"Not enough confirmations\");\n\n        Transaction storage transaction = transactions[_transactionId];\n        transaction.executed = true;\n\n        (bool success, ) = transaction.to.call{value: transaction.value}(transaction.data);\n        require(success, \"Transaction execution failed\");\n\n        emit TransactionExecuted(_transactionId);\n    }\n}",
  "sourcePath": "/Users/navnn/Documents/Projects/agentic-ethglobal/contracts/HierarchicalWallet.sol",
  "compiler": {
    "name": "solc",
    "version": "0.8.21+commit.d9974bed.Emscripten.clang"
  },
  "schemaVersion": "3.4.16",
  "updatedAt": "2024-03-15T20:01:54.086Z",
  "networkType": "ethereum",
  "devdoc": {
    "kind": "dev",
    "methods": {},
    "version": 1
  },
  "userdoc": {
    "kind": "user",
    "methods": {},
    "version": 1
  }
}